:02000000962840
:1000060083120313FB01FA01F9018030F800F10CA9
:10001600F00C031C17287408F90775080318750FE8
:10002600FA070318FB0A0310F01F1F287408FA07C3
:1000360075080318750FFB07FB0CFA0CF90CF80C86
:10004600031C0A287B08F3007A08F2007908F100FD
:060056007808F00008002C
:0C005C008312031395011712971208007D
:0E0068008312031331088A003008820008005A
:1000760034208A110A128000840AB00A0319B10AD0
:08008600F003031D3B280800F4
:10008E00831603130711831212150C309704080000
:10009E00831603131208013EF000F1010318F10A52
:1000AE0083123408F400F50103200630F2007008C4
:1000BE00F4007108F500720803196A28F50CF40CA7
:1000CE00F513FF3E63280430F1007408F000710848
:1000DE0003197528F00D7010FF3E6F283030700533
:1000EE00F3007408F0007508F100F10CF00CF11338
:1000FE00F10CF00CF113700895000F309705730892
:04010E00970408004A
:10011200831203138701831687018312121492102C
:0A012200C730831692002E2008005B
:10012C00013083120313A000A1010130A200A3012E
:10013C000130A400A5010130A600A701A801A90166
:10014C00AA01AB01AC01AD01AE01AF018920472082
:10015C00B201B30180303306F00080307002031D11
:10016C00B9280830320203180F293208F00033087E
:10017C00F100F00DF10D70107008203E84000008A5
:10018C00F100840A0008F20000307206031DD0282A
:10019C0001307106031DE328BF30B4004F200B3033
:1001AC00FB002630FC005D30FD00FD0BDB28FC0B5A
:1001BC00DB28FB0BDB28000000003208F0003308C2
:1001CC00F100F00DF10D70107008203E8400000855
:1001DC00F100840A0008F20000307206031DF828B2
:1001EC0000307106031D0B294030B4004F200B303A
:1001FC00FB002630FC005D30FD00FD0B0329FC0BE1
:10020C000329FB0B032900000000B20A0319B30AEF
:06021C00B028AE281029F5
:02400E004A2F37
:00000001FF
