:020000001628C0
:0E0006008312031331088A00300882000800BC
:1000140003208A110A128000840AB00A0319B10A63
:08002400F003031D0A28080087
:10002C00013083120313A000A1010130A200A3012F
:10003C000130A400A5010130A600A701A801A90167
:10004C00AA01AB01AC01AD01AE01AF018701831672
:10005C0087018312B201B30180303306F000803087
:10006C007002031D3B280830320203188D28320819
:10007C00F0003308F100F00DF10D70107008203E07
:10008C0084000008F100840A0008F20000307206B7
:10009C00031D522801307106031D632807150B3010
:1000AC00FB002630FC005D30FD00FD0B5B28FC0BDB
:1000BC005B28FB0B5B28000000003208F0003308C3
:1000CC00F100F00DF10D70107008203E8400000856
:1000DC00F100840A0008F20000307206031D782833
:1000EC0000307106031D892807110B30FB002630E8
:1000FC00FC005D30FD00FD0B8128FC0B8128FB0B07
:10010C00812800000000B20A0319B30A32282F28F4
:02011C008E282B
:02400E004A2F37
:00000001FF
